:020000040800F2
:1000000048090020050100080D0100080F01000843
:10001000110100081301000815010008000000008C
:1000200000000000000000000000000017010008B0
:1000300019010008000000001B010008811A0008D7
:100040001F0100081F0100081F0100081F01000810
:100050001F0100081F0100081F0100081F01000800
:100060001F0100081F0100081F0100081F010008F0
:100070001F0100081F0100081F0100081F010008E0
:100080001F0100081F0100081F0100081F010008D0
:100090001F0100081F0100081F0100081F010008C0
:1000A0001F0100081F0100081F0100081F010008B0
:1000B0001F0100081F0100081F0100081F010008A0
:1000C0001F0100081F0100081F0100081F01000890
:1000D0001F0100081F0100081F0100081F01000880
:1000E0001F0100081F0100081F010008DFF810D0E1
:1000F00000F068FB0048004755260008AFF3008079
:10010000480900200648804706480047FEE7FEE70A
:10011000FEE7FEE7FEE7FEE7FEE7FEE7FEE7FEE7B7
:10012000C11A0008ED00000838B5D0E90221491EC7
:1001300001EB410102EBC1014268C1EB011102EB8D
:1001400081010268C1EB011102EB8102D0E90431A7
:1001500001EB410103EB81013023A1F5527191FBC9
:10016000F3F4174D6C4302EBC41291FBF3F403FB61
:10017000141100921A2902DB124B1A4400920C222D
:1001800091FBF2F3104C6343009C04EBC313009308
:1001900091FBF2F302FB13110C4A08E0491E40F2F6
:1001A000A324535C6343009C04EBC3130093002916
:1001B000F4DC0146684600F049FA009838BD0000BA
:1001C0003F0C0F008051010067C203006C4400081F
:1001D000D2B201E000F8012B491EFBD27047002289
:1001E000F6E710B513460A4604461946FFF7F0FF36
:1001F000204610BD10B5002200E0521C835C8C5CD0
:10020000A34201D1002BF8D1D8B2E1B2401A10BDFF
:100210002DE9FE4F804681EA0300C00F0C46009096
:1002200021F0004123F00045B8EB0200A94105D2BE
:100230004046214690461C460B46024623F00040AD
:10024000104347D0270DC7F30A00C3F30A510290A9
:10025000401A019040286BDAC3F3130040F4801B6E
:100260000098924620B10023D2EB030A63EB0B0BFC
:1002700001985946C0F14002504600F0B0F90646D8
:100280000D4650465946019A00F0C8F910EB080097
:100290006141002487EA115284EAE7731A4340D08F
:1002A000009A62B3019A012A4FEA075215DC001B3B
:1002B00061EB02014FF0004202EA0752CDE9004231
:1002C000001C41F5801132462B4600F014FA03B0B1
:1002D000BDE8F08F40462146F9E7001B61EB0201C3
:1002E000001C41F5801300185B412018A2F500178F
:1002F00047EB030140EAD570B6196D4111E06D0876
:100300004FEA360645EAC0754FEA0752001B61EB1B
:100310000201001C41F5801149084FEA3000001924
:10032000514132462B4603B0BDE8F04F00F0D4B93E
:100330000098012240000023D0EB020263EBE0733F
:10034000009821464FEAE074B8EB000061EB04012D
:10035000E9E783F000435BE781F0004158E72DE9CE
:10036000FE4F81EA030404F0004421F000410094B0
:100370004FF0000B23F0004350EA01045ED052EA34
:1003800003045BD0C3F30A54C1F30A552C44A4F20E
:10039000F3340194A0FB0254C1F3130141F4801122
:1003A000C3F3130343F4801301FB024400FB034E29
:1003B000840A970A44EA815447EA8357A4FB0768F2
:1003C00002958D0A05FB07854FEA932C04FB0C541C
:1003D0002705029D4FEA065847EA1637B5EB080590
:1003E0006EEB070C870E920E47EA811742EA8312E2
:1003F000A7FB0201B6EB0B0164EB00042B0D43EAF3
:100400000C335E1844EB1C50DA465146E7FB020100
:10041000C5F313044FEA0B3343EA14534FEA043293
:10042000019C43EA0603A4F10C040294009CCDE96C
:1004300000B400F060F903B0BDE8F08F0020014681
:10044000F9E72DE9F04D81EA030404F0004B21F0B7
:10045000004514464FF0000A23F0004150EA05021F
:1004600020D054EA01021DD0C5F30A570246C5F355
:100470001303C1F31300C1F30A5640F4801543F48B
:100480008013A7EB0608101BD64608F2FD3873EB65
:10049000050002D308F1010801E092185B41B8F1B0
:1004A000000F03DA00200146BDE8F08D00204FF474
:1004B0008011064684460EE0171B73EB050705D333
:1004C000121B63EB050306434CEA010C49084FEA93
:1004D000300092185B4150EA0107EDD152EA030067
:1004E00012D082EA040083EA0501084305D0101BFC
:1004F000AB4106D20122002306E000224FF0004368
:1005000002E06FF0010253101AEB06004CEB0851A9
:1005100010EB0A0041EB0B01BDE8F04D00F0DCB838
:1005200030B5041E71F1000404DB4FF0004440427A
:1005300064EB0101141E73F1000405DB1C464FF04F
:100540000043524263EB0403994208BF904230BD1E
:1005500030B50B46014600202022012409E021FA93
:1005600002F59D4205D303FA02F5491B04FA02F590
:100570002844151EA2F10102F1DC30BD2DE9F05F27
:100580000546002092469B46884606468146402402
:100590001BE0284641464746224600F02FF85346C6
:1005A0005A46C01A914110D311461846224600F00F
:1005B00016F82D1A67EB01084F462246012000214C
:1005C00000F00DF817EB00094E41201EA4F10104C4
:1005D000DFDC484631462A464346BDE8F09F202AE4
:1005E00004DB203A00FA02F1002070479140C2F18A
:1005F000200320FA03F3194390407047202A04DBBC
:10060000203A21FA02F00021704721FA02F3D0408B
:10061000C2F120029140084319467047202A06DBA8
:10062000CB17203A41FA02F043EAE07306E041FAC0
:1006300002F3D040C2F120029140084319467047AE
:10064000014900F003B800001C05002010B5006847
:100650003C22B0FBF2F302FB1303B0FBF2F00B60A1
:10066000B0FBF2F302FB1303B0FBF2F018224B6075
:10067000B0FBF2F302FB1303B0FBF2F0021D8B6040
:100680000723B2FBF3F403FB1422800040F2B553BE
:1006900000F66C308A61B0FBF3F2B0FBF3F403FBBD
:1006A0001400443280084A61C8613B2802D3920793
:1006B00000D0401C0022074C13460A61E25C8242D3
:1006C00003D8801A5B1C0B61F8E7401CC860084621
:1006D00010BD00007844000810B5141E73F100042A
:1006E00008DA401C41F1000192185B411A4301D124
:1006F00020F0010010BD2DE9F04D92469B4611B14E
:10070000B1FA81F202E0B0FA80F220329046FFF7AF
:1007100066FF04460F4640EA0A0041EA0B015346D1
:100720005A46084313D0114653EA010019D0C8F1C4
:1007300040025046FFF762FF05460E4650465946B6
:100740004246FFF74CFF084305D0012004E0204655
:100750003946BDE8F08D0020054346EAE0762C439B
:1007600037430A986305E40AA0EB08000022FD0A5B
:1007700044EA47540A3002D500200146E9E7010562
:1007800010196941DDE9084500196941BDE8F04DDE
:10079000A2E7C1F30A52C1F3130140F2FF3341F45F
:1007A00080119A4202DA00200146704740F233433A
:1007B0009A42A2F2334202DC5242FFF71FBFFFF718
:1007C0000EBF0000064C074D06E0E06840F0010354
:1007D00094E8070098471034AC42F6D3FFF78AFC40
:1007E000D0440008F044000830B53C2402F13C033A
:1007F000062913D2DFE801F003131E29333B0188D9
:10080000114489B201804FF4FA6340F633029942F1
:1008100000D202800188914200D9038030BD8178E6
:100820000B3211440C2291FBF2F302FB1311491C11
:10083000817030BDC1781E3211441F2291FBF2F34A
:1008400002FB1311491CC17030BD017918321144EB
:10085000182291FBF2F302FB1311017130BD4179B3
:10086000194491FBF4F204FB1211417130BD8179FE
:10087000194491FBF4F204FB1211817130BD0000A8
:1008800010B501F0B9F91249002000F0D3F9104970
:10089000012000F0CFF90E49022000F0CBF900F062
:1008A000DFFC4FF4FA71002001F082F8002001F023
:1008B000DDF900F079FE0021022001F079F800F066
:1008C000B9FD0021BDE81040032001F071B800001F
:1008D000DD1B000870B5044601F0CCF8064D296810
:1008E000401AA04206D301F0C5F82860BDE8704068
:1008F00000F0A8B970BD00000400002010B50A2067
:10090000FFF7E8FFBDE8104001F086B908B50349DC
:10091000084400900098008808BD0000006C00406A
:1009200008B5034A104400900098016008BD00001B
:10093000006C004010B500F00DF800F0B9FF01F0B8
:100940000BF900F0E9F901F09DF8BDE8104000F066
:1009500055B900000648016841F080710160054802
:1009600000214160016841F0010101607047000011
:10097000FCED00E0001000E010B58CB004462C2126
:1009800001A8FFF72CFC2088A0F26C700690A078DC
:10099000401E0590E07804902079039060790290E1
:1009A000A079019001A8FFF7BFFB0CB010BD30B5D6
:1009B00004464FF47A7502E0284600F005F8641EFC
:1009C000A4B2F9D230BD000004494A6800EBC0006F
:1009D000C0004B689B1A8342FBD37047001000E0B5
:1009E000416901224A72027A521E0A7241684968BC
:1009F00008472DE9F0410022CC7804F00F03E4060B
:100A000001D58C7823430C784FF00F0714F0FF0FBB
:100A10004FF0010C1CD005680CFA02F40E88264039
:100A2000A64211D1960007FA06F825EA080503FA4E
:100A300006F848EA0505CE78282E02D0482E02D0C6
:100A400002E0446100E00461521C082AE4D305601E
:100A50000A88FF2A1ED94568002202F108060CFA0E
:100A600006F40E882640A64210D1960007FA06F832
:100A700025EA080503FA06F848EA0505CE78282E87
:100A800000D14461CE78482E00D10461521C082A5E
:100A9000E3D34560BDE8F0810246002092680A4237
:100AA00000D001207047000008B50121082000F0A7
:100AB0003BFE4FF44070ADF8000014208DF80300A9
:100AC00003208DF8020069460148FFF792FF08BD38
:100AD000000C01402DE9F04105460024184F184E46
:100AE000083F306840F480703060306840F4007037
:100AF00030600220FFF768FF280604D5386840F40C
:100B00000070386003E0306840F40070306002200C
:100B1000FFF75AFF386840F4807038600220FFF712
:100B200053FF306840F4807030600220FFF74CFFC4
:100B30006806050E641CE4B2082CD2D3BDE8F0812F
:100B4000140C014010B50B48016841F4807101603C
:100B5000016841F4007101600220FFF735FF05488C
:100B60000830016841F400710160BDE810400220C6
:100B7000FFF72ABF0C0C014010B50B4C206840F465
:100B80008070206008480830016841F400710160FD
:100B90000220FFF719FF206840F400702060BDE8D4
:100BA00010400220FFF710BF0C0C014070B5124C32
:100BB000206840F4807020600F4D083D286840F4A4
:100BC000007028600220FFF7FFFE286840F4807064
:100BD00028600220FFF7F8FE281F006800F4007567
:100BE000206840F4807020600220FFF7EDFE0DB118
:100BF000012070BD002070BD140C0140F8B5002428
:100C00000A4E0B4F06EB44150121686800F08CFD7D
:100C100038680090A889ADF800006946A868FFF719
:100C2000E8FE641C032CEDDBF8BD0000140000207E
:100C300068440008032802D2014A42F82010704795
:100C40001005002070B50024074E06EB4415A98955
:100C5000A868FFF721FF0146284600F0ECFC641C61
:100C6000032CF2DB70BD00001400002008B50378EF
:100C7000074A52F82330002B09D003788DF8003052
:100C80008DF80110007852F820106846884708BD9A
:100C90001005002010B50021074C0022002004EBB5
:100CA000C1131A54401CC0B28028FAD3491CC9B2DF
:100CB0000829F3D310BD0000100100202DE9F041F8
:100CC000CF1823E0044686181CE07F2C18D8002992
:100CD00016DB3F2914DCCB1701EB5373DD104FEA11
:100CE000C51C0C4D23F007036544A1EB030815F860
:100CF00004C0012303FA08F32CEA030C05F804C02E
:100D0000641C24B2A642E0DC491C09B28F42D9DC43
:100D1000BDE8F0811001002010B5FFF7C5FE64208A
:100D2000FFF745FEAE2000F0F7F9D52000F0F4F90A
:100D3000802000F0F1F9A82000F0EEF93F2000F04B
:100D4000EBF9D32000F0E8F9002000F0E5F94020AD
:100D500000F0E2F9A12000F0DFF9C82000F0DCF992
:100D6000DA2000F0D9F9122000F0D6F9812000F045
:100D7000D3F9CF2000F0D0F9D92000F0CDF9F1203F
:100D800000F0CAF9DB2000F0C7F9302000F0C4F908
:100D9000A42000F0C1F9A62000F0BEF98D2000F0DB
:100DA000BBF9142000F0B8F9AF2000F0B5F9FFF757
:100DB00071FFBDE8104000F09BB90FB470B5C0B032
:100DC00005460E46144648AA6846479900F0D6FFE5
:100DD00023466A463146284600F0CCF840B070BC45
:100DE0005DF814FB2DE9F041CF1823E00446861886
:100DF0001CE07F2C18D8002916DB3F2914DCCB1708
:100E000001EB5373DD104FEAC51C0C4D23F00703B3
:100E10006544A1EB030815F804C0012303FA08F3A5
:100E20008CEA030C05F804C0641C24B2A642E0DC82
:100E3000491C09B28F42D9DCBDE8F08110010020C5
:100E400010B50C4640F0B00000F066F904F00F0059
:100E500000F062F9102040EA1410BDE8104000F0E4
:100E60005BB9000008B5203A082B0ED0062B15D030
:100E70000C2B09D10F4B02EBC20203EB8202009252
:100E800018230C2200F01CF808BD0B4B03EB0212D8
:100E900000921023082200F013F808BD074B02EB64
:100EA000420203EB420200920823062200F008F8F7
:100EB00008BD0000622F000838270008282D000810
:100EC0002DE9FF4F0F46DDF8349090461D46002473
:100ED0002B46424639460098FFF7F0FE6D1EE81794
:100EE00005EB50700121DFF888C001EBE00A3BE020
:100EF000002035E000990D187F2D2FD8F91707EB4A
:100F00005171CA1016B221F007017B1A002F03DAC3
:100F1000761E36B208331BB2311907290DD804FBEF
:100F200008FB09EB000E0CEBC1121BF80EB0565D6E
:100F30000BFA03FB46EA0B065655491C07290DD848
:100F400004FB08F609EB000B0CEBC11116F80B6063
:100F50004A5DC3F10803DE4032434A55401CC0B22B
:100F60004045C7D3641CE4B2A245C1DCBDE8FF8F95
:100F7000100100202DE9FF4F83B0804614469946AA
:100F800000250026AA46A7E0010609D4012128462B
:100F90006D1C205CADB28DF804008DF805A055E005
:100FA0000621B1EB501F10D10221681C625D80B296
:100FB0008DF80420225C002A73D0421C205C95B27C
:100FC0008DF805008DF806A040E00E21B1EB101F52
:100FD00018D10321681C625D80B28DF80420225C68
:100FE000002A7DD0421C205C92B28DF80500A05CE6
:100FF000002875D0501C85B2A05C8DF806008DF8D5
:1010000007A023E01E21B1EBD00F23D10421681CDF
:10101000625D80B28DF80420225C002A60D0421C00
:10102000205C92B28DF80500A05C002858D0501CBE
:10103000A25C80B28DF80620225C002A50D0421CAF
:10104000205C95B28DF807008DF808A0012904D026
:10105000002716E06D1CADB23EE008EB06009DF8DF
:10106000042000B24B460499FFF7FCFE06EB090092
:1010700086B231E0584601A9FFF7BCF850B17F1C99
:10108000BFB2194819A100EB87108346FFF7B2F8E9
:101090000028EFD1B9F1080F04D0B9F1060F1BD128
:1010A00010E01DE01048102300EB8710401D009059
:1010B00008EB060000B21A460499FFF701FF10364C
:1010C000B6B209E008EB060000B206233F220499FD
:1010D000FFF7C8FEB61DB6B2605D00287FF454AFBE
:1010E00007B0BDE8F08F0000C03C00080000000021
:1010F00070B50024074D00212046FFF7A1FE05EB47
:10110000C410802100F01FF8641CE4B2082CF2D354
:1011100070BD00001001002010B50446FFF712FD5D
:101120007820FFF7D7FCFFF741FD0020FFF7D2FC46
:10113000FFF73CFD2046FFF7CDFCFFF737FDBDE88C
:101140001040FFF719BD70B505460E46FFF7FAFCD3
:101150007820FFF7BFFCFFF729FD4020FFF7BAFC1E
:10116000FFF724FD002406E0285DFFF7B3FCFFF73E
:101170001DFD641CE4B2B442F6D3BDE87040FFF735
:10118000FBBC0000014908627047000000000E42ED
:101190002DE9F04385B0064603A800F07DFBFFF77C
:1011A00079FD9DF80E10BDF80C20CDE900219DF8C9
:1011B0000F000290002123A306220846FFF7FDFD41
:1011C0009DF811109DF81020CDE900219DF8120026
:1011D000029010211EA30C220846FFF7EEFD00240A
:1011E00006274FF005084FF0040910E0F56809EBF9
:1011F00004102B5C05EB0410026807EB0410295C5B
:1012000008EB0410285CFFF7B5FE641CE4B2307CE8
:10121000A042EBD8347A0821F06801EB0411435C5A
:10122000072101EB0411425C07EB041108EB0414E5
:10123000415C005DFFF7D6FDFFF75AFF05B0BDE842
:10124000F083000025642D25642D25640000000036
:10125000253032643A253032643A25303264000059
:10126000064800210170064A426001720C32C260D9
:10127000022202740183C16100F0ECBCB0000020C6
:1012800064260008FFF784BF4A78012A2CD1097828
:1012900071B1012917D0022926D1037A0921C26828
:1012A00001EB0311515C042917D0084600F0DEBCA5
:1012B000027A017C0A44521E92FBF1F301FB1321D6
:1012C0000172FFF765BF017A027C491CB1FBF2F3A2
:1012D00002FB13110172FFF75BBF0C2101EB03113D
:1012E0005158002900D00847704700007CB50446DB
:1012F0006569FFF7CFFC207A04282CD2E0680168EA
:101300000091037AC27981794079FFF7D9FDE068CD
:10131000298844A30269CDE90021027D817D407DB9
:10132000FFF74BFDE068A97840A350F8202FCDE9E6
:101330000021027981794079FFF73FFDE068E97883
:101340003AA350F8302FCDE9002102798179407914
:10135000FFF733FD23E0E068297934A350F8402FEC
:10136000CDE90021027981794079FFF726FDE06817
:1013700069792EA350F8502FCDE9002102798179A7
:101380004079FFF71AFDE068A97928A350F8602F8B
:10139000CDE90021027981794079FFF70EFD687A65
:1013A000082307220621052638B3287A88B1E06889
:1013B000247A03EB041302EB041201EB041106EB95
:1013C0000414C35C825C415C005D1830FFF70AFDC9
:1013D00023E0E068247A02EB041203EB0413825C3E
:1013E00001EB041106EB0414C35C415C005D520682
:1013F000120E1830FFF7F6FC0FE0E068247A03EBDA
:10140000041302EB041201EB041106EB0414C35C99
:10141000825C415C005DFFF7E5FCBDE87C40FFF7C6
:1014200067BE000025732530346400002573253025
:10143000326400000848032101700849416000211E
:101440000172064A0C32C26007220274044A4261E9
:101450000183C16100F0FEBBF0000020BC26000843
:10146000080000207CB505466C69684600F014FA57
:1014700000982060019860602846BDE87C40FFF736
:1014800035BF10B5044660694A78012A01D0032AA5
:101490005CD1437A0BB3032A03D10A780AB1012A3B
:1014A00054D1097821B1012907D002290FD10AE0CE
:1014B000017A0122FFF798F909E0017A4FF0FF3233
:1014C000FFF792F903E00021417200F04FFA6068E3
:1014D00041682046BDE810400847012A36D1087807
:1014E00078B101281BD0022830D1227A0920E16886
:1014F00000EB0210085C04281ED0BDE8104000F08C
:10150000B5BB217A207C0144491E91FBF0F200FB1F
:10151000121020722046BDE81040FFF7E7BE207A87
:10152000217C401CB0FBF1F201FB1200207220462E
:10153000BDE81040FFF7DABE0C2000EB021009589E
:10154000002903D02046BDE81040084710BD38B53B
:101550000546FFF79FFBEC6820680090237AE2794C
:10156000A1796079FFF7ACFCE868037D817D0269B1
:10157000407DFFF7FFFC2C7A0821E86801EB04119D
:101580000525435C072101EB0411425C062101EBB8
:10159000041105EB0414415C005DFFF723FCBDE87A
:1015A0003840FFF7A5BD0000074802220270074936
:1015B000416000210172054B0C33C360027401834A
:1015C000C16100F047BB0000D00000209026000859
:1015D000FFF7BDBF4A78012A2CD1097871B10129E2
:1015E00017D0022926D1027A0921C36801EB021122
:1015F000595C042917D0084600F038BB017A027CF8
:101600001144491E91FBF2F302FB13110172FFF723
:101610009EBF017A027C491CB1FBF2F302FB13115D
:101620000172FFF794BF0C2101EB021159580029F8
:1016300000D008477047F0B4827B8A4201D1012173
:1016400000E0002100224274037C01240425052BC4
:101650005AD2DFE803F003091C314300002901D00E
:1016600004744282F0BC7047438A5B1C9BB2438285
:10167000048BA342F6D339B10221017442828275F0
:10168000F0BC0121FFF7F2BA02744282EAE7438A12
:101690005B1C9BB24382468BB34208D30321017487
:1016A000428282828475F0BC0221FFF7DFBA0029F2
:1016B000D8D105744282D5E769B1818A491C89B2C3
:1016C0008182838B002BCDD09942CBD38282F0BC18
:1016D0000321FFF7CBBA05744282C3E7438A5B1C40
:1016E0009BB24382048BA342BCD319B1817D39B133
:1016F000032106E002744282F0BC0421FFF7B6BA6F
:10170000022101744282ADE70274ABE7054A002969
:1017100003D0D1690143D1617047D1698143D1615F
:101720007047000000100240054A002903D091696B
:101730000143916170479169814391617047000055
:101740000010024010B5264A516801F00C01254BEB
:10175000002927D0042927D0082927D00360516801
:1017600001F0F0010909204B5C5C0168E140416037
:10177000546804F4E064240A1C5D21FA04F48460D3
:10178000546804F46054E40A1B5DD940C160526897
:1017900002F44042920B144B1B1F9A5CB1FBF2F116
:1017A000016110BD0360DAE70360D8E7516801F416
:1017B0007011536803F48033022404EB914133B178
:1017C00053689B0307D5094B59430160C7E7074B93
:1017D00059430160C3E7034B59430160BFE7000071
:1017E0000010024000127A009000002000093D0025
:1017F000034600205909094A01290AD002290AD0C2
:10180000516A03F01F02012393400B4200D00120D4
:1018100070471168F5E7116AF3E700000010024015
:10182000084900220A7001F82029012805D004285F
:1018300002D1052081F820007047012081F82000A6
:101840007047000020100240014908607047000006
:101850003C04424202490A6A02430A62704700009D
:10186000001002400248018841F0100101807047D9
:10187000042800400248018821F0100101807047CF
:1018800004280040034800880249091F098840EAEB
:10189000014070471C28004010B5044600F07CF859
:1018A000FFF7F0FF01462046BDE8104000F030B9D8
:1018B00010B501210807FFF729FF0121C806FFF72E
:1018C00025FF0120FFF75EFC0420FFF71FF84AF216
:1018D000A554A04221D00120FFF7A2FF4120FFF72D
:1018E00087FF0028FAD04FF48070FFF7B3FF012084
:1018F000FFF7AAFF00F050F800F046F847F6FF7037
:1019000000F024F800F040F8074800F02FF82146D6
:10191000BDE810400420FFF703B800F03DF8BDE833
:10192000104000F031B800006044000800B50246E5
:10193000FFF798FF0449100C0880081D02805DF82D
:1019400004EBFFF797BF00001828004000B50246DF
:10195000FFF788FF0449C2F303400880081D028096
:101960005DF804EBFFF786BF0828004010B5044679
:1019700000F00AF82046FEF7FFFFFFF7D7FFBDE8AB
:10198000104000F001B80000024801888906FCD52B
:1019900070470000042800400448018821F0080135
:1019A000018001880907FCD5704700000428004029
:1019B000024A52F82000018370470000A000002076
:1019C000AFF300800CB50022019200922748016815
:1019D00041F4803101604FF4A063016801F40031EB
:1019E00000910199491C0191009911B901999942FD
:1019F000F3D10168890302D50121009100E0009232
:101A00000099012930D11A490A6842F010020A608F
:101A10000A6822F003020A600A6842F002020A60C1
:101A20004168416041684160416841F480614160C2
:101A3000416821F47C114160416841F4E811416042
:101A4000016841F08071016001688901FCD541683D
:101A500021F003014160416841F0020141604168A9
:101A6000C1F381010229FAD10CBD0000001002402F
:101A70000020024001480068704700007400002008
:101A800000F016B84FF0E0200021816106494FF4C4
:101A90007A720968B1FBF2F1491E4161034AF021F3
:101AA00011700721016170477800002023ED00E0EC
:101AB00002480168491C0160704700007400002062
:101AC00010B50F48016841F00101016041680D4AFD
:101AD0001140416001680C4A11400160016821F425
:101AE00080210160416821F4FE0141604FF41F0133
:101AF0008160FFF765FF05494FF00060086010BD89
:101B0000001002400000FFF8FFFFF6FE08ED00E0C5
:101B10003EB50446029102A8FEF792FD0021009115
:101B20000191818A01F26C71ADF80010017C491CB1
:101B30008DF80210017B8DF80310017A8DF80410E6
:101B400001798DF8051000788DF806000098206066
:101B5000019860603EBD000010B586B00121880389
:101B6000FFF7E2FD01210420FFF7DEFD4FF40070D6
:101B7000ADF8140018208DF8170003208DF816001A
:101B8000144C05A92046FEF734FF2115ADF81010BE
:101B900004218DF8131004A92046FEF72AFF4FF404
:101BA000E13000900020ADF80400ADF80600ADF87B
:101BB00008000C21ADF80A10ADF80C00064C69467F
:101BC000204600F07DF80121204600F06DF806B0B7
:101BD00010BD0000000801400038014001460548E2
:101BE0000068002804D042689268002A00D010479C
:101BF00070470000000000200020054A002142F844
:101C00002010401C0428FADB0248016070470000E5
:101C1000A00000200000002010B50D4C2068002816
:101C200015D0008B002812D0FFF724FF0146206852
:101C3000C269038B8A1A9A4209D3C161416800299B
:101C400005D04968002902D0BDE81040084710BD02
:101C500000000020002805D00178042902D2024AA1
:101C600042F8210070470000A000002010B50428B1
:101C700014D20B4951F8200000280FD0094C2060E5
:101C8000FFF7F8FE01462068C1614168002905D0D0
:101C90000968002902D0BDE81040084710BD0000C7
:101CA000A000002000000020002904D0818941F418
:101CB000005181817047818921F4005181817047F1
:101CC00030B585B004460D46208A4CF6FF710840B9
:101CD000E98801432182A0894EF6F3110840A988C2
:101CE0002A8911436A8902431143A181A08A4FF6D0
:101CF000FF410840A9890143A1826846FFF722FD00
:101D00001D48844201D1039800E00298A18909048A
:101D100008D500EBC00101EB001029684900B0FBB9
:101D2000F1F007E000EBC00101EB00102968890029
:101D3000B0FBF1F06422B0FBF2F109010B096FF086
:101D400018056B4300EB8300A3891D044FF0320399
:101D500007D503EBC000B0FBF2F000F0070008432A
:101D600006E003EB0010B0FBF2F000F00F000843B8
:101D7000208105B030BD00000038014037B5144661
:101D80000846064B6A46214600F0DCF804466946E0
:101D9000002000F05AFC20463EBD00004B26000803
:101DA00002E008C8121F08C1002AFAD17047704724
:101DB000002001E001C1121F002AFBD17047000082
:101DC0002DE9FF5F82B00021DDE90430020DDDF86E
:101DD00040B0034318D044F61050A2F2FF32424301
:101DE0001514119801281FD0A5EB0B00401C5FEAC9
:101DF000000A4FF000064E4FDFF83891B0465046CB
:101E000015D5CAF1000413E0119801244AA3012852
:101E100001D16FEA0B010298119AC0E90031C0E9C3
:101E2000024206B0BDE8F09FCBF10000DFE70446B8
:101E30000021404A491842EB0450CDE9001012E05D
:101E4000E00707D032463B4640464946FEF787FA50
:101E50008046894632463B4610461946FEF77FFAD1
:101E600006460F466410002CEAD1DDE90401DDE9E5
:101E70000023BAF1000F06DAFEF771FA42464B462C
:101E8000FEF76DFA05E0FEF7DCFA42464B46FEF738
:101E9000D8FA04460E460022284BFEF741FB03D831
:101EA0004FF0FF30014607E00022254B2046314627
:101EB000FEF7AEF9FEF76DFC102409E0002C0ADBFA
:101EC0000A220023FEF75AFB039B30321A55641E88
:101ED00050EA0102F2D1641C039AC4F111031444C4
:101EE000119A012A03D0012208430DD10AE00843C8
:101EF00004D000204FF0110B119072E7A3EB0B05FB
:101F00006D1E0DE05B4504DD4FF0000205F101059B
:101F100004E003DA4FF00002A5F10105002AECD03D
:101F200002981199C0E90231C0E9004579E7000043
:101F3000000014400000F03F300000000000F043BB
:101F40000000E03F2DE9FF4F95B09A4688460646CF
:101F50000025EEE1252877D100242746F94A012102
:101F6000039400E0044316F8013F203B01FA03F01C
:101F70001042F7D130782A2811D06FF02F03307833
:101F8000A0F13002092A16D8039A44F0020402EBA9
:101F9000820203EB42021044761C0390EFE758F8EC
:101FA000042B0392002A03DA504244F400540390B5
:101FB00044F00204761C30782E2816D116F8010F52
:101FC00044F004042A280DD06FF02F023078A0F1DD
:101FD0003003092B09D807EB870302EB4303C7182B
:101FE000761CF3E758F8047B761C30786C280FD009
:101FF00006DC4C2817D068280DD06A2814D104E0DC
:10200000742810D07A280FD10DE044F400140AE0AF
:1020100044F4801401E044F440147278824202D106
:1020200004F58014761C761C307866280BD013DCFF
:10203000582877D009DC002875D04528F6D04628E6
:10204000F4D047281AD193E118E0632835D06428EA
:1020500079D0652812D18BE1702873D008DC67280D
:10206000F1D069286FD06E280DD06F2806D1ACE072
:1020700073282CD0752874D0782853D052461799DD
:1020800090476D1C54E1C4F30250022809D0032884
:102090000DD0D8F8001004280DD00D6008F1040808
:1020A00046E1D8F80010EA17C1E90052F6E7D8F87F
:1020B00000100D80F2E70D70F0E718F8041B8DF8A2
:1020C000001000208DF80100EB46012003E058F8D5
:1020D00004BB4FF0FF3061074FF0000102D40DE068
:1020E00009F101018946B9420FDA8145F8DB1BF895
:1020F00009100029F4D108E009F101018946814263
:10210000FADB1BF809100029F6D103985346A0EB1F
:10211000090721463846179A00F080FA284400EB58
:10212000090507E044E008E10DE01BF8010B524609
:1021300017999047B9F10109F7D25346214638461D
:10214000179AF2E039E00A21C4F302524FF0000B73
:102150000091022A06D058F8040BC117032A09D0AF
:102160000AE023E008F1070020F00702F2E802018C
:10217000904605E000B2C117042A01D140B2C11750
:10218000002906DA0A460021404261EB02012D22B5
:1021900002E0220504D52B228DF80420012203E061
:1021A000E20701D02022F7E7914657E00A2100E03C
:1021B00010214FF0000B00910BE010214FF0000BAD
:1021C00044F004040827009103E008204FF0000BBE
:1021D0000090C4F30252022A05D058F8040B0021E3
:1021E000032A08D008E008F1070020F00702F2E80F
:1021F0000201904603E080B2042A00D1C0B24FF041
:10220000000922072AD53278702A07D0DDF800C0ED
:102210008CF0100C5CEA0B0C05D00EE040228DF81F
:102220000420012208E050EA010306D030238DF893
:1022300004308DF8052002229146009B83F00803AC
:1022400053EA0B030AD150EA010201D1620705D516
:1022500030228DF804204FF001097F1E3278582A71
:1022600004D039A20C920CAA02920BE03BA2F9E72F
:102270005B46009AFEF782F90C9B9B5C029A521E09
:102280000292137050EA0102F2D1029804A9081ACE
:1022900000F1200B600702D524F4803400E0012710
:1022A0005F4502DDA7EB0B0000E0002000EB0B0117
:1022B000009003984944401A0390E00306D4534623
:1022C0002146179A039800F0A9F90544002706E073
:1022D00001A85246C05D179990476D1C7F1C4F4561
:1022E000F6DBE0030CD553462146179A039800F01D
:1022F00095F9054404E030205246179990476D1C2B
:102300000099481E00900029F5DC08E00298029927
:1023100052460078491C0291179990476D1CBBF1F9
:102320000001ABF1010BF1DC5BE100F065F9054464
:10233000761C307800287FF40DAE19B02846BDE831
:10234000F08F000009280100303132333435363740
:1023500038396162636465660000000030313233F1
:102360003435363738394142434445460000000091
:10237000600700D4062708F1070020F00700F0E806
:102380000223804603F0004C5FEA0C0001D097A0C6
:1023900009E0200501D596A005E0E00701D095A051
:1023A00001E0AFF24C001390307823F00043652831
:1023B0000CD006DC452809D046281DD047287FD1FF
:1023C0003BE0662818D067287AD136E00021112F2B
:1023D00001DB112000E0781CCDE9000104A90CA864
:1023E000FFF7EEFCDDE90D010C9A4FF0000B07F151
:1023F0000109109200914EE04FF000400097CDE9A6
:10240000011004A90CA8FFF7DBFCDDE90D020C9B11
:102410000F994FF0000B91461093009211B9791C5F
:1024200000EB0109B7EB090003D4C0F1FF3B07F152
:102430000109A9EB0700019042E0012F00DA012712
:102440000021112F01DD112000E03846CDE9000107
:1024500004A90CA8FFF7B4FCDDE90D010C9A00916A
:102460004FF0000BB946109221070FD4009A4A454D
:1024700003DA914601E0A9F10109B9F1010F05DD87
:10248000109AA9F10101515C3029F4D0B84202DA66
:1024900010F1040F03DA0121CDE9011010E000284A
:1024A00003DC8344A9EB000102E0411C494500DD47
:1024B0008946A0EB0B00401C01904FF000400290B9
:1024C000200705D40198484502DB4FF0FF3001900A
:1024D00000208DF84B0002980DF14B07B0F1004F32
:1024E00025D002200C902B200D90029800280CDAA9
:1024F000404202902D200D9007E00A210298FEF73D
:1025000027F83031029007F8011D0C99481E0C90F5
:102510000029F2DC02980028EFD1791E0D9808708E
:10252000307800F0200040F0450007F8020D11A8B7
:10253000C01BC01D02901398007800B1012000EB71
:102540000901019801EBE071029801440398401AD7
:10255000401E0390E00306D453462146179A039881
:1025600000F05CF805441398007818B152461799AA
:1025700090476D1CE00323D553462146179A0398D4
:1025800000F04CF805441BE0BBF1000F07DB00989E
:10259000584504DD1098179910F80B0001E01799C1
:1025A00030205246904701980BF1010B401E05F177
:1025B0000105019004D12E205246179990476D1CB9
:1025C000B9F10001A9F10109DEDC05E017F8010B02
:1025D0005246179990476D1C0299481E0290002997
:1025E000F4DC53462146179A03989EE62D0000001E
:1025F0002B000000200000002DE9F04104460025DA
:102600001E461746880404D405E039462020B0470A
:102610006D1C641EF9D52846BDE8F0812DE9F04116
:10262000044600251E469046C80301D5302700E029
:102630002027880404D505E041463846B0476D1C84
:10264000641EF9D52846BDE8F0810A68531C0B606A
:1026500010707047FEF76EF9FEF712F9FEF74EF9AB
:10266000FCE700008512000891110008891200089B
:10267000844400080800302010040000000000001E
:10268000984400080860302010020000000000009C
:10269000D11500084F150008D51500084044000862
:1026A0000000001010000000000000008C44000832
:1026B000080010601003000000000000651400080E
:1026C000ED120008831400084044000800000010C8
:1026D0001002000000000000C044000808001010B4
:1026E00010040000E1090008A844000808002010B8
:1026F00010040000E1090008B84400080800301088
:1027000010040000E1090008C84400080800001097
:1027100010040000E1090008A0440008080010109F
:1027200010040000E1090008B0440008080020106F
:1027300010040000E1090008000000000000000093
:102740000000000000000000000000F80000000091
:10275000000000333000000000160E00160E0000CE
:10276000000000000000000040C07840C078400039
:10277000043F04043F040400007088FC083000009B
:10278000001820FF211E0000F008F000E0180000F3
:1027900000211C031E211E0000F0088870000000AC
:1027A0001E21232419272110000000160E0000000E
:1027B0000000000000000000000000E0180402001B
:1027C000000000071820400000020418E00000008C
:1027D0000040201807000000404080F0804040008A
:1027E0000202010F01020200000000F000000000E0
:1027F0000101011F010101000000000000000000B4
:1028000000B07000000000000000000000000000A8
:1028100000010101010101010000000000000000B1
:10282000003030000000000000000000806018044C
:10283000006018060100000000E010080810E00029
:10284000000F102020100F00001010F800000000F2
:102850000020203F20200000007008080888700039
:1028600000302824222130000030088888483000B9
:102870000018202020110E000000C02010F80000D9
:1028800000070424243F240000F808888808080072
:102890000019212020110E0000E010888818000087
:1028A000000F112020110E0000380808C838080059
:1028B0000000003F000000000070880808887000D9
:1028C000001C222121221C0000E010080810E0005A
:1028D0000000312222110F00000000C0C0000000E3
:1028E0000000003030000000000000C0C000000008
:1028F000000080B070000000000080402010080040
:1029000000010204081020004040404040404000C8
:1029100004040404040404000008102040800000A3
:102920000020100804020100007048080808F000A8
:102930000000003036010000C030C828E810E00078
:102940000718272423140B000000C038E000000003
:10295000203C23020227382008F88888887000006D
:10296000203F202020110E00C03008080808380041
:10297000071820202010080008F808080810E000B8
:10298000203F202020100F0008F88888E808100059
:10299000203F20202320180008F88888E80810002D
:1029A000203F200003000000C03008080838000065
:1029B00007182020221E020008F808000008F80866
:1029C000203F210101213F20000808F808080000ED
:1029D0000020203F2020000000000808F808080020
:1029E000C08080807F00000008F888C02818080098
:1029F000203F20012638200008F8080000000000D1
:102A0000203F20202020300008F8F800F8F80800C7
:102A1000203F003F003F200008F830C00008F808C1
:102A2000203F200007183F00E01008080810E000D1
:102A30000F10202020100F0008F808080808F000E8
:102A4000203F210101010000E01008080810E0000B
:102A50000F18242438504F0008F8888888887000A0
:102A6000203F2000030C3020007088080808380040
:102A70000038202121221C00180808F80808180036
:102A80000000203F2000000008F808000008F808B7
:102A9000001F202020201F000878880000C8380868
:102AA000000007380E010000F80800F80008F800E0
:102AB000033C0700073C030008186880806818087A
:102AC00020302C03032C30200838C800C8380800F8
:102AD0000000203F2000000010080808C838080047
:102AE0002038262120201800000000FE02020200EB
:102AF0000000007F40404000000C30C0000000009B
:102B0000000000010638C00000020202FE000000C2
:102B1000004040407F000000002010080408102002
:102B200000000000000000000000000000000000A5
:102B30008080808080808080000204080000000087
:102B40000000000000000000000080808080000085
:102B50000019242222223F2008F800808000000073
:102B6000003F112020110E00000000808080000036
:102B7000000E112020201100000000808088F80045
:102B8000000E112020103F20000080808080000077
:102B9000001F222222221300008080F088888818DB
:102BA0000020203F202000000000808080808000E6
:102BB000006B94949493600008F80080808000007B
:102BC000203F210000203F20008098980000000056
:102BD0000020203F20200000000000809898000086
:102BE00000C08080807F000008F8000080808000A6
:102BF000203F24022D302000000808F800000000CB
:102C00000020203F20200000808080808080800085
:102C1000203F20003F20003F008080008080000097
:102C200000203F2100203F200000808080800000A5
:102C3000001F202020201F008080008080000000D6
:102C400080FFA12020110E00000000808080800005
:102C5000000E112020A0FF808080800080808000F6
:102C600020203F2120000100000080808080800023
:102C70000033242424241900008080E08080000098
:102C80000000001F202000008080000000808000E5
:102C9000001F202020103F20808080000080808046
:102CA00000010E30080601008080008000808080D6
:102CB0000F300C030C300F000080800080808000FB
:102CC0000020312E0E312000808080000080808026
:102CD00080818E70180601000080808080808000D6
:102CE0000021302C2221300000000000807C0202F4
:102CF00000000000003F404000000000FF00000016
:102D000000000000FF0000000002027C80000000C4
:102D10000040403F000000000080404080000080F4
:102D200000000000000101000000000000000000A1
:102D3000002F000000000700070000147F147F141C
:102D400000242A7F2A1200231308646200364955A2
:102D5000225000000007000000001C22410000007B
:102D600041221C000014083E08140008083E080810
:102D7000000000A06000000808080808000060606B
:102D80000000002010080402003E5149453E0000AA
:102D9000427F4000004261514946002141454B318C
:102DA000001814127F10002745454539003C4A4958
:102DB00049300001710905030036494949360006CA
:102DC0004949291E00003636000000005636000032
:102DD00000081422410000141414141400004122AD
:102DE0001408000201510906003E4955592E007C85
:102DF0001211127C007F49494936003E414141226F
:102E0000007F4141221C007F49494941007F090957
:102E10000901003E4149497A007F0808087F000007
:102E2000417F4100002040413F01007F08142241C2
:102E3000007F40404040007F020C027F007F04087A
:102E4000107F003E4141413E007F09090906003ED6
:102E50004151215E007F09192946004649494931FF
:102E60000001017F0101003F4040403F001F204022
:102E7000201F003F4038403F0063140814630007E0
:102E80000870080700615149454300007F41410037
:102E9000000204081020000041417F0000040201EC
:102EA00002040040404040400000010204000020B5
:102EB00054545478007F48444438003844444420F3
:102EC00000384444487F00385454541800087E09A0
:102ED00001020018A4A4A47C007F08040478000068
:102EE000447D4000004080847D00007F1028440025
:102EF0000000417F4000007C04180478007C080436
:102F0000047800384444443800FC24242418001871
:102F1000242418FC007C080404080048545454205D
:102F200000043F444020003C4040207C001C2040E6
:102F3000201C003C4030403C004428102844001C29
:102F4000A0A0A07C004464544C440000087F4100D1
:102F50000000007F00000000417F08000008040816
:102F60001008000000000000000000000000000049
:102F70000000000000000000000000000000000051
:102F80000000000000000000000000F0F000000061
:102F900000000000000000770F00000000000000AB
:102FA0000000001C1C000000000000008060301CBD
:102FB0008C60301C0C0000000000000000000000CD
:102FC0000000000000000000000000000000000001
:102FD0000000F000000000F00000008383FF838306
:102FE0008383FB87830000011F01010101011F0191
:102FF0000100000080C06020F820E0C00000000058
:1030000003070C18FF71E18100000000070F121088
:103010007F100F070000C0301030C00000C030002B
:10302000000007181018CF38C6311030C00000005B
:10303000180700000718101807000000E0F010F053
:10304000E00000000000C0E0173FF8C70308F808E0
:103050000800070F181010130F0E1910100C0000A5
:103060008C4C380000000000000000000000000050
:103070000000000000000000000000000000000050
:103080000000000000000000806010080400000044
:10309000000000FE01000000000000000000000031
:1030A000030C1020400000040810608000000000A5
:1030B0000000000000000001FE00000000000040D1
:1030C00020100C03000000000000000000000000C1
:1030D000C08000000000006666243810FF183C2401
:1030E0006666000000000000030000000000000011
:1030F0000000000080000000000000101010101000
:10310000FF1010101010000000000000030000006D
:1031100000000000000000000000000000000000AF
:103120000000000000000000000000008C4C38008F
:10313000000000000000000000000000000000008F
:1031400000000010101010101010101010000000DF
:10315000000000000000000000000000000000006F
:10316000000000000000000000000000000000005F
:10317000000000001C1C1C000000000000000000FB
:10318000000000000000E0380C000000000080702B
:103190001C03000000000060380E01000000000069
:1031A0000000000080C060202060C080000000FEA1
:1031B000FF010000000001FFFE000001070E1810D3
:1031C00010180E0701000000404040C0E000000061
:1031D00000000000000000FFFF00000000000000F1
:1031E0001010101F1F101010000000804020202021
:1031F0002060C08000000003030000C060301F0793
:10320000000000181C1211101010101E000000C049
:10321000C020202060C080000000000101001010CC
:10322000182FE7800000000E0E10101010180F0766
:10323000000000000000000080E0E000000000C08E
:10324000A098848380FFFF80808000000000001031
:10325000101F1F1010000000E02020202020202040
:10326000000000003F1008080818F0E00000000708
:103270000B101010101C0F030000000080C0402035
:103280002020E0C0000000FCFF211008080818F012
:10329000E0000001070C18101010080F03000000D8
:1032A000C0602020202020E060000000010000001D
:1032B000E0180700000000000000001F1F000000D1
:1032C00000000080C0602020202060C080000083BB
:1032D000CF6C1810303068CF830000070F08101033
:1032E0001010180F07000000C0C020202020C08050
:1032F0000000001F3F604040402010FFFE00000023
:103300000C1C101010080F0300000000000000004B
:1033100000000000000000000000001C1C1C000059
:10332000000000000000001C1C1C00000000000049
:103330000000000000000000000000000000000C81
:103340000C00000000000000000000D83800000061
:10335000000000000000000000804020100000007D
:10336000102844820100000000000000000000005E
:10337000010204081000000000000000000000002E
:103380000000004444444444444444444400000095
:10339000000000000000000000000000102040803D
:1033A000000000000000000000000000018244282E
:1033B00010000000100804020100000000000000DE
:1033C0008040402020202060C080000007060000D0
:1033D000E01018080F0700000000001C1C1C000073
:1033E00000000000C0E020109090A060800000FE6F
:1033F000FF00F8FF03FC07807F000000070E181194
:103400001111090C0200000000008060E0000000C3
:103410000000000080784740415FF0800000101CF1
:10342000131000000000111F18100020E0E0202001
:103430002060C0C000000000FFFF101010182FE730
:10344000800000101F1F10101010180F0700000040
:1034500080C04020202060E0800000FCFF010000D0
:103460000000000003000001070E18101010080CE7
:1034700003002020E0E020202040C0800000000069
:10348000FFFF0000000001FFFE0010101F1F1010C2
:1034900010080E07010020E0E020202020206060BE
:1034A000800000FFFF10101010FC00000100101F32
:1034B0001F10101010101018060020E0E02020202F
:1034C00020206060800000FFFF10101010FC000042
:1034D0000100101F1F10100000000000000000007D
:1034E00080C0602020204080000000FCFF01000020
:1034F0004040C0C340400001070E181010100F0FCD
:10350000000020E0E0200000000020E0E02000FFBC
:10351000FF101010101010FFFF00101F1F100000F0
:103520000000101F1F100000202020E0E0202020BD
:1035300000000000000000FFFF000000000000008D
:103540001010101F1F10101000000000002020207D
:10355000E0E020202000000000000000FFFF00004D
:1035600000000060E08080C07F3F0000000020E09D
:10357000E0200000A0E06020000000FFFF300C3AD7
:10358000E18000000000101F1F10000000131E1833
:10359000100020E0E020200000000000000000FFFC
:1035A000FF000000000000000000101F1F1010109E
:1035B00010101018060020E0E000000000C0E0E05D
:1035C000200000FF0FFFE0807C03FFFF0000101FC2
:1035D00010000F0700101F1F10000020E0E0800007
:1035E000002020E020200000FF01071E78C000FF1F
:1035F000000010101F10100000030F1F000000003B
:1036000080C060202060C080000000FEFF0100003C
:10361000000000FFFE000001070E181010180C0734
:10362000010020E0E0202020202040C0800000FF9A
:10363000FF2020202030101F0F00101F1F1010002F
:10364000000000000000000080C060202060C080FA
:10365000000000FEFF010000000000FFFE0000016E
:10366000070E1911173C6C67210020E0E020202094
:10367000202060C0800000FFFF10101070D0080FE5
:103680000700101F1F1000000001071E1810008007
:10369000C0602020202040E0000000070F1C1838E8
:1036A0003070E0E1800000070C0810101010180FB7
:1036B00007008060202020E0E020202060800100C2
:1036C000000000FFFF000000000100000010101FBC
:1036D0001F10100000000020E0E02000000020E0AB
:1036E00020000000FFFF0000000000FF00000000BD
:1036F000070F18101010080700002060E0200000DD
:103700000000A06020000000077EE0008078070035
:10371000000000000000071E03000000000020E081
:1037200020002060E0200020E0200003FFC0C03C1B
:103730003FF0807C03000000001F0300001F070013
:103740000000002060E020000020E02020000000B9
:103750000001877CE88601000000001018160100B7
:1037600000131E1810002060E0200000000020A0C0
:1037700060200000010F3CF8E01806010000000086
:103780000010101F1F10100000000080E0602020BB
:103790002020A0E020000001000080601806030047
:1037A000000000101C171110101010180600000067
:1037B000000000FC0404040400000000000000FFFE
:1037C00000000000000000000000007F404040407A
:1037D0000000000030C000000000000000000000F9
:1037E00000000718E080000000000000000000005A
:1037F00000030C708000000004040404FC000000BE
:103800000000000000000000FF00000000000000B9
:10381000404040407F00000000000000000804021B
:10382000020408000000000000000000000000008A
:103830000000000000000000000000000000000088
:103840000000000000000000000000000000000078
:103850000000000000008080808080808080808068
:103860008080000000040408080000000000000040
:103870000000000000000000000000000000000048
:103880000000000000000000000000000000000038
:1038900000000000989884444444FCF80000000FA5
:1038A0001F19101010080F1F10180020E0F0000062
:1038B0000000000000000000FFFF180804040CF8DE
:1038C000F00000001F0F08101010180F0300000078
:1038D0000000000000000000000000E0F8180404F0
:1038E000043C3800000000030F0C101010100806F4
:1038F00000000000000000002020E0F0000000E0D8
:10390000F81C04040408FFFF000000030F18101047
:1039100010081F0F08000000000000000000000059
:1039200000000000E0F8888484848CF8E000000047
:10393000030F0C101010100804000000000080C0DD
:10394000602020E0C00000040404FFFF0404040021
:103950000000000010101F1F1010100000000000D9
:1039600000000000000000000000000070F88C045F
:103970000CFCF40C0C0000707ECF85858DCD787822
:1039800000000020E0F00000000000000000000047
:10399000FFFF08040404FCF8000000101F1F1000C3
:1039A00000101F1F100000000000006060000000F9
:1039B00000000000040404FCFE0000000000000001
:1039C0001010101F1F101010000000000000000059
:1039D00060606000000000000000040404FCFE00C1
:1039E00000000000C0C08080C07F3F0000000020B9
:1039F000E0F000000000000000000000FFFF804039
:103A0000E01C0404000000101F1F100000131E180B
:103A100010000000202020E0F00000000000000066
:103A2000000000FFFF000000000000001010101F49
:103A30001F10101000000000000000000000000037
:103A4000000004FCFC0804FCF80804FCFC00101F47
:103A50001F10101F1F10101F1F100000000000007B
:103A60000000000000000004FCFC08040404FCF852
:103A7000000000101F1F100000101F1F100000008A
:103A80000000000000000000000000E0F0180C043E
:103A9000040C18F0E00000030F0C101010100C0FB5
:103AA000030000000000000000000000000000040F
:103AB000FCFC080404040CF8F0000080FFFF889070
:103AC00010101C0F030000000000000000000000A8
:103AD000000000E0F81C04040408F8FC00000003E7
:103AE0000F1810109088FFFF8000000000000000F9
:103AF000000000000000040404FCFC100804041C86
:103B000018001010101F1F101010000000000000FF
:103B10000000000000000000000000003878CCC465
:103B200084840C3C000000001E18101011191F0F97
:103B300000000000000000C00000000000000004C1
:103B40000404FFFF040404000000000000000F1F35
:103B50001010100C00000000000000000000000029
:103B600000000004FCFE00000004FCFE0000000059
:103B70000F1F181010081F0F0800000000000000A1
:103B800000000000000000040C7CC4000080740CE5
:103B9000040000000000031F0C03000000000000F0
:103BA00000000000000000000000041CF48004EC91
:103BB000FC8400E41C040000011F0F00000F0F0034
:103BC00000000000000000000000000000000000F5
:103BD000040C3CE4C0241C0404000010101C12015E
:103BE00001131C181000000000000000000000007D
:103BF00000000004043CC40000C43C0404000000B5
:103C0000C080817F0E010000000000000000000065
:103C100000000000000000003C0404C4741C0C0000
:103C200000000000181E13111010180E00000000F4
:103C30000000000000F80404000000000000001074
:103C400028C700000000000000000000003F4040C6
:103C50000000000000000000FF0000000000000065
:103C600000000000FF000000000000000000000055
:103C7000FF000000000000000404F8000000000045
:103C8000000000000000C728100000000000000035
:103C900040403F00000000000000000C020202044F
:103CA000081810100C0000000000000000000000C8
:103CB0000000000000000000000000000000000004
:103CC000EFBC8C00000000000000000000000000BD
:103CD0000000000000000058380000000000000054
:103CE00000000000000000000000000000000000D4
:103CF00000000000000000000000000000000000C4
:103D0000E3808200000000000000000000000000CE
:103D1000000000000000001824241800000000002B
:103D20000000000000000000000000000000000093
:103D30000000000000000000000000000000000083
:103D4000E4BDA00000008060F8074020180F08C8FC
:103D50000808281800010000FF00100C0340807FB5
:103D60000001061800000000000000000000000034
:103D70000000000000000000000000000000000043
:103D8000E5A5BD00001010F01F10F000808282E257
:103D9000928A868000402215081661000040807FCC
:103DA0000000000000000000000000000000000013
:103DB0000000000000000000000000000000000003
:103DC000E4B8960000202020FE2020FF202020FFC5
:103DD00020202020000000007F404047444444470A
:103DE0004040400000000000000000000000000013
:103DF00000000000000000000000000000000000C3
:103E0000E7958C0000000000FE929292FE92929242
:103E1000FE0000000008080484621E010001FE028A
:103E2000040408080000000000000000000000007A
:103E30000000000000000000000000000000000082
:103E4000E88F9C0000040444C44F4444C424242F3D
:103E5000B42404040040442424150C04FE040C156E
:103E60002424444000000000000000000000000086
:103E70000000000000000000000000000000000042
:103E8000E58D9500000000F8494A4C48F8484C4A36
:103E900049F800000010101312121212FF12121231
:103EA00012131010000000000000000000000000CD
:103EB0000000000000000000000000000000000002
:103EC000E8AEBE0000404042CC0040A09E8282820C
:103ED0009EA02020000000003F908840432C102826
:103EE000464180800000000000000000000000004B
:103EF00000000000000000000000000000000000C2
:103F0000E7BDAE0000001715D55557557D555755DF
:103F1000D5151700004040407F555555555555550E
:103F20007F40404000000000000000000000000052
:103F30000000000000000000000000000000000081
:103F4000E697A50000000000FE82828282828282C3
:103F5000FE00000000000000FF40404040404040A4
:103F6000FF00000000000000000000000000000052
:103F70000000000000000000000000000000000041
:103F8000E69C9F00000004FF242424FF0400FE227E
:103F90002222FE000088482F090919AF48300F027D
:103FA00042827F00000000000000000000000000CE
:103FB0000000000000000000000000000000000001
:103FC000E697B6000000FC848484FC0010101010FA
:103FD00010FF101000003F1010103F0000010640BD
:103FE000807F0000000000000000000000000000D2
:103FF00000000000000000000000000000000000C1
:10400000E997B4000000F8010600F0121212F20263
:104010000202FE000000FF0000001F1111111F002E
:1040200040807F0000000000000000000000000051
:104030000000000000000000000000000000000080
:10404000E5B9B40000002018C744444444FC44448B
:1040500044440400000404040704040404FF0404AA
:104060000404040400000000000000000000000040
:104070000000000000000000000000000000000040
:10408000E69C880000000000FE222222222222223A
:1040900022FE0000008040300F02020202020242B3
:1040A000827F00000000000000000000000000000F
:1040B0000000000000000000000000000000000000
:1040C000E588860000804020908886808080838CF0
:1040D0001020408000008040201807004080403FB2
:1040E00000000000000000000000000000000000D0
:1040F00000000000000000000000000000000000C0
:10410000E7A79200002424A4FE232200C03800FF69
:104110000008106000080601FF010681804040276A
:10412000100C030000000000000000000000000070
:10413000000000000000000000000000000000007F
:10414000E5BC80000080828282FE8282828282FEC2
:104150008282828000008040300F0000000000FF5B
:10416000000000000000000000000000000000004F
:10417000000000000000000000000000000000003F
:10418000E5A78B00001010F01F10F00040E058472A
:10419000405060C0004022150816210000FE424237
:1041A0004242FE000000000000000000000000008D
:1041B00000000000000000000000000000000000FF
:1041C000E5819C00008060F8070004745455565443
:1041D00054740400000000FF0003010545857D05BF
:1041E00005050103000000000000000000000000C1
:1041F00000000000000000000000000000000000BF
:10420000E6ADA20000000000F0000000FF404040CA
:1042100040400000004040407F4040407F404040E0
:10422000404040400000000000000000000000008E
:10423000000000000000000000000000000000007E
:10424000E6B88500001060028C00445454547F543A
:10425000545444400004047E010000FF1515155518
:10426000957F00000000000000000000000000003A
:10427000000000000000000000000000000000003E
:10428000E999A4000000FE225A8620102824E32485
:10429000281020200000FF040827110D41817F0114
:1042A00005093100000000000000000000000000CF
:1042B00000000000000000000000000000000000FE
:1042C000E8B0B70000001088844320100C10204193
:1042D0008284080000010100FE4242424242424202
:1042E000FE000101000000000000000000000000CE
:1042F00000000000000000000000000000000000BE
:10430000E6AD8C000082BAAAAABA82BE8220180F3B
:10431000C808281800001E12125E807F0080601CF2
:10432000031C60800000000000000000000000008E
:10433000000000000000000000000000000000007D
:10434000E5B08F0000000000E0000000FF0000006A
:104350002040800000080403000040807F0000002F
:104360000000010E0000000000000000000000003E
:10437000000000000000000000000000000000003D
:10438000E6819000008082827E4242807E1222027C
:10439000FE0000C000403100003A41404458404017
:1043A0007001093100000000000000000000000062
:1043B00000000000000000000000000000000000FD
:1043C000E9BE9900001010101010FF1010F010112D
:1043D00016D010100080402018064120103F4442A3
:1043E0004140407800000000000000000000000094
:1043F00000000000000000000000000000000000BD
:104400000000000000FF010101310909090989715B
:1044100001010101FFFF8080808080809681808083
:1044200080808080FF00000000000000000000008D
:10443000000000000000000000000000000000007C
:104440000080C0E0F0F8C0C0C0C0C0C0C0FCFC002C
:1044500000000103070F0101010101010101010039
:10446000E407010100000000000003481F1C1F1E9C
:104470001F1E1F1F1E1F1E1F1F1D1F1E1F1E1F1F53
:104480001E1F1E1FE88F9CE58D950000E697A5E690
:104490009C9FE697B6E997B4E8AEBEE7BDAE0000D4
:1044A000E588863A00000000E69C883A000000009B
:1044B000E7A7923A00000000E697A53A0000000046
:1044C000E5B9B43A00000000E697B63A00000000F3
:1044D000F044000800000020A0000000A01D00081B
:1044E00090450008A0000020A8080000B01D0008AA
:1044F0000000000000000000E407010100000000CF
:10450000060000000000000008000000000C014050
:104510000200000000000000000000000200320065
:104520001400000001000000040000000008014029
:104530004000000000000000000000000200320007
:104540001400000002000000040000000008014008
:104550001000000000000000000000000200320017
:10456000140000000000000000A24A040000000047
:1045700000000000010203040607080902040608FF
:1045800000000000010203040102030406070809F9
:0400000508000105E9
:00000001FF
