:020000040800F2
:1000000098080020050100080D0100080F010008F4
:10001000110100081301000815010008000000008C
:1000200000000000000000000000000017010008B0
:1000300019010008000000001B0100088D120008D3
:100040001F0100081F0100081F0100081F01000810
:100050001F0100081F0100081F0100081F01000800
:100060001F0100081F0100081F0100081F010008F0
:100070001F0100081F0100081F0100081F010008E0
:100080001F0100081F0100081F0100081F010008D0
:100090001F0100081F0100081F0100081F010008C0
:1000A0001F0100081F0100081F0100081F010008B0
:1000B0001F0100081F0100081F0100081F010008A0
:1000C0001F0100081F0100081F0100081F01000890
:1000D0001F0100081F0100081F0100081F01000880
:1000E0001F0100081F0100081F010008DFF810D0E1
:1000F00000F054FB00480047911D0008AFF300805A
:10010000980800200648804706480047FEE7FEE7BB
:10011000FEE7FEE7FEE7FEE7FEE7FEE7FEE7FEE7B7
:10012000CD120008ED00000838B5D0E90221491EC3
:1001300001EB410102EBC1014268C1EB011102EB8D
:1001400081010268C1EB011102EB8102D0E90431A7
:1001500001EB410103EB81013023A1F5527191FBC9
:10016000F3F4174D6C4302EBC41291FBF3F403FB61
:10017000141100921A2902DB124B1A4400920C222D
:1001800091FBF2F3104C6343009C04EBC313009308
:1001900091FBF2F302FB13110C4A08E0491E40F2F6
:1001A000A324535C6343009C04EBC3130093002916
:1001B000F4DC0146684600F035FA009838BD0000CE
:1001C0003F0C0F008051010067C20300C41D0008EE
:1001D000D2B201E000F8012B491EFBD27047002289
:1001E000F6E710B513460A4604461946FFF7F0FF36
:1001F000204610BD2DE9FE4F804681EA0300C00F66
:100200000C46009021F0004123F00045B8EB0200BD
:10021000A94105D24046214690461C460B4602465F
:1002200023F00040104347D0270DC7F30A00C3F363
:100230000A510290401A019040286BDAC3F3130070
:1002400040F4801B0098924620B10023D2EB030AB1
:1002500063EB0B0B01985946C0F14002504600F089
:10026000B0F906460D4650465946019A00F0C8F9C5
:1002700010EB08006141002487EA115284EAE77319
:100280001A4340D0009A62B3019A012A4FEA0752FA
:1002900015DC001B61EB02014FF0004202EA07523D
:1002A000CDE90042001C41F5801132462B4600F09A
:1002B0000EFA03B0BDE8F08F40462146F9E7001B77
:1002C00061EB0201001C41F5801300185B4120180E
:1002D000A2F5001747EB030140EAD570B6196D414E
:1002E00011E06D084FEA360645EAC0754FEA07523D
:1002F000001B61EB0201001C41F5801149084FEA27
:1003000030000019514132462B4603B0BDE8F04F92
:1003100000F0CEB90098012240000023D0EB020289
:1003200063EBE073009821464FEAE074B8EB0000FD
:1003300061EB0401E9E783F000435BE781F00041F2
:1003400058E72DE9FE4F81EA030404F0004421F050
:10035000004100944FF0000B23F0004350EA0104E9
:100360005ED052EA03045BD0C3F30A54C1F30A55CA
:100370002C44A4F2F3340194A0FB0254C1F3130102
:1003800041F48011C3F3130343F4801301FB0244CF
:1003900000FB034E840A970A44EA815447EA8357D4
:1003A000A4FB076802958D0A05FB07854FEA932C8D
:1003B00004FB0C542705029D4FEA065847EA1637FE
:1003C000B5EB08056EEB070C870E920E47EA811716
:1003D00042EA8312A7FB0201B6EB0B0164EB0004B7
:1003E0002B0D43EA0C335E1844EB1C50DA465146A1
:1003F000E7FB0201C5F313044FEA0B3343EA14533E
:100400004FEA0432019C43EA0603A4F10C0402946F
:10041000009CCDE900B400F05AF903B0BDE8F08FBC
:1004200000200146F9E72DE9F04D81EA030404F0CC
:10043000004B21F0004514464FF0000A23F0004124
:1004400050EA050220D054EA01021DD0C5F30A5734
:100450000246C5F31303C1F31300C1F30A5640F477
:10046000801543F48013A7EB0608101BD64608F24C
:10047000FD3873EB050002D308F1010801E0921882
:100480005B41B8F1000F03DA00200146BDE8F08DB2
:1004900000204FF48011064684460EE0171B73EBD4
:1004A000050705D3121B63EB050306434CEA010C59
:1004B00049084FEA300092185B4150EA0107EDD13C
:1004C00052EA030012D082EA040083EA05010843DD
:1004D00005D0101BAB4106D20122002306E000220A
:1004E0004FF0004302E06FF0010253101AEB0600D8
:1004F0004CEB085110EB0A0041EB0B01BDE8F04D4D
:1005000000F0D6B830B5041E71F1000404DB4FF0E2
:100510000044404264EB0101141E73F1000405DB4A
:100520001C464FF00043524263EB0403994208BF5C
:10053000904230BD30B50B460146002020220124F8
:1005400009E021FA02F59D4205D303FA02F5491BA1
:1005500004FA02F52844151EA2F10102F1DC30BDB7
:100560002DE9F05F0546002092469B4688460646E8
:10057000814640241BE0284641464746224600F07B
:100580002FF853465A46C01A914110D311461846C7
:10059000224600F016F82D1A67EB01084F46224656
:1005A0000120002100F00DF817EB00094E41201E3C
:1005B000A4F10104DFDC484631462A464346BDE843
:1005C000F09F202A04DB203A00FA02F10020704755
:1005D0009140C2F1200320FA03F319439040704781
:1005E000202A04DB203A21FA02F00021704721FA88
:1005F00002F3D040C2F120029140084319467047EF
:10060000202A06DBCB17203A41FA02F043EAE073D6
:1006100006E041FA02F3D040C2F1200291400843C3
:100620001946704710B500683C22B0FBF2F302FB9C
:100630001303B0FBF2F00B60B0FBF2F302FB130309
:10064000B0FBF2F018224B60B0FBF2F302FB130395
:10065000B0FBF2F0021D8B600723B2FBF3F403FB47
:100660001422800040F2B55300F66C308A61B0FB72
:10067000F3F2B0FBF3F403FB1400443280084A6148
:10068000C8613B2802D3920700D0401C0022074CCF
:1006900013460A61E25C824203D8801A5B1C0B613C
:1006A000F8E7401CC860084610BD0000D01D0008D7
:1006B00010B5141E73F1000408DA401C41F100016A
:1006C00092185B411A4301D120F0010010BD2DE9C1
:1006D000F04D92469B4611B1B1FA81F202E0B0FAB8
:1006E00080F220329046FFF76CFF04460F4640EA46
:1006F0000A0041EA0B0153465A46084313D01146FB
:1007000053EA010019D0C8F140025046FFF768FFD4
:1007100005460E46504659464246FFF752FF0843EB
:1007200005D0012004E020463946BDE8F08D0020C8
:10073000054346EAE0762C4337430A986305E40A0A
:10074000A0EB08000022FD0A44EA47540A3002D513
:1007500000200146E9E7010510196941DDE9084576
:1007600000196941BDE8F04DA2E7C1F30A52C1F397
:10077000130140F2FF3341F480119A4202DA002063
:100780000146704740F233439A42A2F2334202DC00
:100790005242FFF725BFFFF714BF0000064C074D7C
:1007A00006E0E06840F0010394E807009847103441
:1007B000AC42F6D3FFF79EFCDC1D0008FC1D0008D0
:1007C00010B50D4800F062FA0B48203000F05EFAD8
:1007D0000948403000F05AFA0849074800F071FA19
:1007E00005480749203000F06CFA0348BDE8104086
:1007F0000449403000F065BA04000020190B0008DD
:10080000950B0008110C000810B500F039FD0B4CD9
:100810002168401A0A280FD300F032FD2060201D05
:1008200000F055FA04F1240000F051FA04F14400FC
:10083000BDE8104000F04BBA10BD000000000020E1
:1008400008B50349084400900098008808BD0000DE
:10085000006C004008B5034A104400900098016005
:1008600008BD0000006C004010B500F00BF800F06F
:100870002DFC00F053FD00F0BBFABDE8104000F085
:1008800007BD00000648016841F08071016005481D
:1008900000214160016841F00101016070470000E2
:1008A000FCED00E0001000E010B58CB004462C21F7
:1008B00001A8FFF794FC2088A0F26C700690A07845
:1008C000401E0590E07804902079039060790290B2
:1008D000A079019001A8FFF727FC0CB010BD30B53E
:1008E00004464FF47A7502E0284600F005F8641ECD
:1008F000A4B2F9D230BD000004494A6800EBC00040
:10090000C0004B689B1A8342FBD37047001000E085
:100910002DE9F0410022CC7804F00F03E40601D564
:100920008C7823430C784FF00F0714F0FF0F4FF033
:10093000010C1CD005680CFA02F40E882640A64271
:1009400011D1960007FA06F825EA080503FA06F819
:1009500048EA0505CE78282E02D0482E02D002E0C3
:10096000446100E00461521C082AE4D305600A884F
:10097000FF2A1ED94568002202F108060CFA06F487
:100980000E882640A64210D1960007FA06F825EAFE
:10099000080503FA06F848EA0505CE78282E00D1A6
:1009A0004461CE78482E00D10461521C082AE3D35A
:1009B0004560BDE8F0810246002092680A4200D0FE
:1009C0000120704708B50121082000F0D1FA4FF44A
:1009D0004070ADF8000014208DF8030003208DF85E
:1009E000020069460148FFF793FF08BD000C014073
:1009F0002DE9F04105460024184F184E083F306895
:100A000040F480703060306840F400703060022044
:100A1000FFF772FF280604D5386840F4007038608C
:100A200003E0306840F4007030600220FFF764FF9C
:100A3000386840F4807038600220FFF75DFF30684E
:100A400040F4807030600220FFF756FF6806050E04
:100A5000641CE4B2082CD2D3BDE8F081140C014030
:100A600010B50B48016841F480710160016841F4E0
:100A7000007101600220FFF73FFF05480830016860
:100A800041F400710160BDE810400220FFF734BF5F
:100A90000C0C014010B50B4C206840F480702060B5
:100AA00008480830016841F4007101600220FFF736
:100AB00023FF206840F400702060BDE81040022051
:100AC000FFF71ABF0C0C014070B5124C206840F4BF
:100AD000807020600F4D083D286840F40070286049
:100AE0000220FFF709FF286840F480702860022088
:100AF000FFF702FF281F006800F40075206840F42B
:100B0000807020600220FFF7F7FE0DB1012070BD5C
:100B1000002070BD140C0140012808D0022809D023
:100B200003280AD004280BD106A000F0C5BC09A0F8
:100B300000F0C2BC0CA000F0BFBC10A000F0BCBC18
:100B4000704700004B6579312052656C65617365B3
:100B50000D0A00004B6579312053686F7274205084
:100B6000726573730D0A00004B657931204C6F6E0E
:100B7000672050726573730D0A0000004B65793170
:100B800020436F6E74696E75652050726573730DC6
:100B90000A000000012808D0022809D003280AD042
:100BA00004280BD106A000F087BC09A000F084BC8B
:100BB0000CA000F081BC10A000F07EBC70470000CB
:100BC0004B6579322052656C656173650D0A0000D2
:100BD0004B6579322053686F72742050726573735D
:100BE0000D0A00004B657932204C6F6E6720507201
:100BF0006573730D0A0000004B65793220436F6EF8
:100C000074696E75652050726573730D0A0000007B
:100C1000012808D0022809D003280AD004280BD1C3
:100C200006A000F049BC09A000F046BC0CA000F0F2
:100C300043BC10A000F040BC704700004B65793306
:100C40002052656C656173650D0A00004B65793350
:100C50002053686F72742050726573730D0A000020
:100C60004B657933204C6F6E672050726573730D3E
:100C70000A0000004B65793320436F6E74696E750E
:100C8000652050726573730D0A00000038B5044684
:100C9000002020736073E0812082A074012120680D
:100CA00000F066F92089ADF8000048208DF80300B7
:100CB00069466068FFF72CFE38BD01894068FFF780
:100CC0007ABE002802D0002900D0C16170472DE90A
:100CD000F04104462046FFF7F0FF00216173227BBC
:100CE0000427032302250126052A60D2DFE802F04B
:100CF00003091A2F4000A27A824259D12673E1815A
:100D000056E0E289521C92B2E281A38A9A424FD302
:100D1000A27A824203D12573E181218200E021730E
:100D2000E18145E0E289521C92B2E281B4F816C03A
:100D3000624505D323736573E1812182A67437E090
:100D4000A27A824234D02773E181A17430E0A27A82
:100D500082420AD1208B48B3228A521C92B222824C
:100D6000824225D36373218222E02773E1811FE051
:100D7000E289521C92B2E281A68AB2420CD3A27AD4
:100D8000824205D0A07C08B1042000E001206073FD
:100D90002173E18121820BE0A27A824208D1A07CFA
:100DA00010B12373E18100E02573E18100E021733C
:100DB000607B002805D0E169002902D0BDE8F04140
:100DC0000847BDE8F081000010B50021074C002263
:100DD000002004EBC1131A54401CC0B28028FAD37F
:100DE000491CC9B20829F3D310BD000094000020AB
:100DF00010B5FFF7E7FD6420FFF771FDAE2000F0AE
:100E00006DF8D52000F06AF8802000F067F8A8207F
:100E100000F064F83F2000F061F8D32000F05EF8A5
:100E2000002000F05BF8402000F058F8A12000F00E
:100E300055F8C82000F052F8DA2000F04FF81220E0
:100E400000F04CF8812000F049F8CF2000F046F87F
:100E5000D92000F043F8F12000F040F8DB2000F04A
:100E60003DF8302000F03AF8A42000F037F8A62032
:100E700000F034F88D2000F031F8142000F02EF846
:100E8000AF2000F02BF8FFF79FFFBDE8104000F007
:100E900011B810B50C4640F0B00000F01FF804F097
:100EA0000F0000F01BF8102040EA1410BDE81040BD
:100EB00000F014B870B50024074D00212046FFF75C
:100EC000E8FF05EBC410802100F01FF8641CE4B2B9
:100ED000082CF2D370BD00009400002010B5044629
:100EE000FFF7BEFD7820FFF783FDFFF7EDFD002043
:100EF000FFF77EFDFFF7E8FD2046FFF779FDFFF7DE
:100F0000E3FDBDE81040FFF7C5BD70B505460E46D0
:100F1000FFF7A6FD7820FFF76BFDFFF7D5FD40201A
:100F2000FFF766FDFFF7D0FD002406E0285DFFF720
:100F30005FFDFFF7C9FD641CE4B2B442F6D3BDE81F
:100F40007040FFF7A7BD000001490862704700002C
:100F500000000E42054A002903D0D1690143D16146
:100F60007047D1698143D161704700000010024091
:100F7000054A002903D09169014391617047916945
:100F800081439161704700000010024010B5264A6D
:100F9000516801F00C01254B002927D0042927D0E6
:100FA000082927D00360516801F0F0010909204B9E
:100FB0005C5C0168E1404160546804F4E064240A28
:100FC0001C5D21FA04F48460546804F46054E40A5B
:100FD0001B5DD940C160526802F44042920B144B31
:100FE0001B1F9A5CB1FBF2F1016110BD0360DAE7EF
:100FF0000360D8E7516801F47011536803F480333B
:10100000022404EB914133B153689B0307D5094B8C
:1010100059430160C7E7074B59430160C3E7034BDE
:1010200059430160BFE700000010024000127A003F
:101030008000002000093D00034600205909094AAC
:1010400001290AD002290AD0516A03F01F020123A4
:1010500093400B4200D0012070471168F5E7116AF8
:10106000F3E7000000100240084900220A7001F86E
:101070002029012805D0042802D1052081F820006C
:101080007047012081F820007047000020100240C6
:1010900001490860704700003C04424202490A6A64
:1010A00002430A62704700000010024002480188B3
:1010B00041F0100101807047042800400248018877
:1010C00021F01001018070470428004010B5012173
:1010D0000807FFF73FFF0121C806FFF73BFF01208C
:1010E000FFF732FF0420FFF7ABFB4AF2A554A04202
:1010F00021D00120FFF7B8FF4120FFF79DFF002816
:10110000FAD04FF48070FFF7C9FF0120FFF7C0FF4E
:1011100000F050F800F046F847F6FF7000F024F8B1
:1011200000F040F8074800F02FF82146BDE81040D5
:101130000420FFF78FBB00F03DF8BDE8104000F041
:1011400031B80000BC1D000800B50246FFF7AEFF35
:101150000449100C0880081D02805DF804EBFFF7BD
:10116000ADBF00001828004000B50246FFF79EFF03
:101170000449C2F303400880081D02805DF804EBB7
:10118000FFF79CBF0828004010B5044600F00AF89D
:101190002046FFF789FBFFF7D7FFBDE8104000F0BE
:1011A00001B80000024801888906FCD5704700009C
:1011B000042800400448018821F0080101800188CA
:1011C0000907FCD57047000004280040AFF30080F9
:1011D0000CB50022019200922748016841F4803149
:1011E00001604FF4A063016801F40031009101999E
:1011F000491C0191009911B901999942F3D10168F3
:10120000890302D50121009100E000920099012993
:1012100030D11A490A6842F010020A600A6822F0C6
:1012200003020A600A6842F002020A6041684160F3
:1012300041684160416841F480614160416821F446
:101240007C114160416841F4E8114160016841F05E
:101250008071016001688901FCD5416821F00301BA
:101260004160416841F0020141604168C1F3810180
:101270000229FAD10CBD00000010024000200240FB
:1012800001480068704700006400002000F016B8B4
:101290004FF0E0200021816106494FF47A7209681D
:1012A000B1FBF2F1491E4161034AF021117007219F
:1012B000016170476800002023ED00E002480168EA
:1012C000491C0160704700006400002010B50F4801
:1012D000016841F00101016041680D4A114041601F
:1012E00001680C4A11400160016821F4802101600D
:1012F000416821F4FE0141604FF41F018160FFF756
:1013000065FF05494FF00060086010BD0010024005
:101310000000FFF8FFFFF6FE08ED00E010B586B014
:1013200001218803FFF724FE01210420FFF720FE9E
:101330004FF40070ADF8140018208DF8170003204A
:101340008DF81600144C05A92046FFF7E1FA211587
:10135000ADF8101004218DF8131004A92046FFF7F2
:10136000D7FA4FF4E13000900020ADF80400ADF85A
:101370000600ADF808000C21ADF80A10ADF80C001D
:10138000064C6946204600F035F80121204600F061
:101390001DF806B010BD00000008014000380140F3
:1013A00070B50546084C8021204600F01BF828B98E
:1013B0004021204600F016F80028F4D029462046A7
:1013C000BDE8704000F074B800380140002904D036
:1013D000818941F4005181817047818921F4005154
:1013E000818170470246002012880A4200D0012005
:1013F0007047000030B585B004460D46208A4CF693
:10140000FF710840E98801432182A0894EF6F3115B
:101410000840A9882A8911436A8902431143A1819E
:10142000A08A4FF6FF410840A9890143A18268467E
:10143000FFF7ACFD1D48844201D1039800E00298FB
:10144000A189090408D500EBC00101EB001029684F
:101450004900B0FBF1F007E000EBC00101EB001028
:1014600029688900B0FBF1F06422B0FBF2F10901B8
:101470000B096FF018056B4300EB8300A3891D0473
:101480004FF0320307D503EBC000B0FBF2F000F0E1
:101490000700084306E003EB0010B0FBF2F000F099
:1014A0000F000843208105B030BD00000038014026
:1014B000C1F30801818070470FB4054B10B503A933
:1014C000044A029800F0DAF810BC5DF814FB000042
:1014D000831D00089000002002E008C8121F08C108
:1014E000002AFAD170477047002001E001C1121FA5
:1014F000002AFBD1704700002DE9FF5F82B0002178
:10150000DDE90430020DDDF840B0034318D044F6A5
:101510001050A2F2FF3242431514119801281FD037
:10152000A5EB0B00401C5FEA000A4FF000064E4F8F
:10153000DFF83891B046504615D5CAF1000413E0E3
:10154000119801244AA3012801D16FEA0B010298E6
:10155000119AC0E90031C0E9024206B0BDE8F09F2F
:10156000CBF10000DFE704460021404A491842EB76
:101570000450CDE9001012E0E00707D032463B46A8
:1015800040464946FEF7DDFE8046894632463B46E8
:1015900010461946FEF7D5FE06460F466410002C8D
:1015A000EAD1DDE90401DDE90023BAF1000F06DA32
:1015B000FEF7C7FE42464B46FEF7C3FE05E0FEF7C8
:1015C00032FF42464B46FEF72EFF04460E460022EF
:1015D000284BFEF797FF03D84FF0FF30014607E096
:1015E0000022254B20463146FEF704FEFFF7BDF8EA
:1015F000102409E0002C0ADB0A220023FEF7B0FFCA
:10160000039B30321A55641E50EA0102F2D1641C69
:10161000039AC4F111031444119A012A03D0012240
:1016200008430DD10AE0084304D000204FF0110B0D
:10163000119072E7A3EB0B056D1E0DE05B4504DD19
:101640004FF0000205F1010504E003DA4FF000025B
:10165000A5F10105002AECD002981199C0E90231E8
:10166000C0E9004579E70000000014400000F03FA9
:10167000300000000000F0430000E03F2DE9FF4F84
:1016800095B09A46884606460025EEE1252877D192
:1016900000242746F94A0121039400E0044316F888
:1016A000013F203B01FA03F01042F7D130782A289D
:1016B00011D06FF02F033078A0F13002092A16D82C
:1016C000039A44F0020402EB820203EB420210444C
:1016D000761C0390EFE758F8042B0392002A03DAF4
:1016E000504244F40054039044F00204761C3078D5
:1016F0002E2816D116F8010F44F004042A280DD024
:101700006FF02F023078A0F13003092B09D807EBD6
:10171000870302EB4303C718761CF3E758F8047BF2
:10172000761C30786C280FD006DC4C2817D068283F
:101730000DD06A2814D104E0742810D07A280FD173
:101740000DE044F400140AE044F4801401E044F491
:1017500040147278824202D104F58014761C761C03
:10176000307866280BD013DC582877D009DC0028A5
:1017700075D04528F6D04628F4D047281AD193E1F1
:1017800018E0632835D0642879D0652812D18BE120
:10179000702873D008DC6728F1D069286FD06E28D4
:1017A0000DD06F2806D1ACE073282CD0752874D0EA
:1017B000782853D05246179990476D1C54E1C4F3D2
:1017C0000250022809D003280DD0D8F800100428B0
:1017D0000DD00D6008F1040846E1D8F80010EA17B2
:1017E000C1E90052F6E7D8F800100D80F2E70D705D
:1017F000F0E718F8041B8DF8001000208DF80100A8
:10180000EB46012003E058F804BB4FF0FF306107BE
:101810004FF0000102D40DE009F101018946B942FF
:101820000FDA8145F8DB1BF809100029F4D108E034
:1018300009F1010189468142FADB1BF809100029F0
:10184000F6D103985346A0EB090721463846179A6C
:1018500000F080FA284400EB090507E044E008E1C5
:101860000DE01BF8010B524617999047B9F1010999
:10187000F7D2534621463846179AF2E039E00A215A
:10188000C4F302524FF0000B0091022A06D058F820
:10189000040BC117032A09D00AE023E008F107006E
:1018A00020F00702F2E80201904605E000B2C117FD
:1018B000042A01D140B2C117002906DA0A460021E4
:1018C000404261EB02012D2202E0220504D52B22C9
:1018D0008DF80420012203E0E20701D02022F7E77F
:1018E000914657E00A2100E010214FF0000B0091D3
:1018F0000BE010214FF0000B44F004040827009186
:1019000003E008204FF0000B0090C4F30252022ABB
:1019100005D058F8040B0021032A08D008E008F18C
:10192000070020F00702F2E80201904603E080B2CF
:10193000042A00D1C0B24FF0000922072AD532781C
:10194000702A07D0DDF800C08CF0100C5CEA0B0C9C
:1019500005D00EE040228DF80420012208E050EA74
:10196000010306D030238DF804308DF805200222C3
:101970009146009B83F0080353EA0B030AD150EA17
:10198000010201D1620705D530228DF804204FF005
:1019900001097F1E3278582A04D039A20C920CAA71
:1019A00002920BE03BA2F9E75B46009AFEF7D8FDF6
:1019B0000C9B9B5C029A521E0292137050EA010229
:1019C000F2D1029804A9081A00F1200B600702D591
:1019D00024F4803400E001275F4502DDA7EB0B0013
:1019E00000E0002000EB0B01009003984944401AEE
:1019F0000390E00306D453462146179A039800F05B
:101A0000A9F90544002706E001A85246C05D1799D0
:101A100090476D1C7F1C4F45F6DBE0030CD5534609
:101A20002146179A039800F095F9054404E0302008
:101A30005246179990476D1C0099481E0090002946
:101A4000F5DC08E00298029952460078491C0291A0
:101A5000179990476D1CBBF10001ABF1010BF1DC54
:101A60005BE100F065F90544761C307800287FF4CE
:101A70000DAE19B02846BDE8F08F0000092801001E
:101A800030313233343536373839616263646566F4
:101A900000000000303132333435363738394142B6
:101AA0004344454600000000600700D4062708F1C3
:101AB000070020F00700F0E80223804603F0004C06
:101AC0005FEA0C0001D097A009E0200501D596A09F
:101AD00005E0E00701D095A001E0AFF24C001390C3
:101AE000307823F0004365280CD006DC452809D067
:101AF00046281DD047287FD13BE0662818D06728AC
:101B00007AD136E00021112F01DB112000E0781C92
:101B1000CDE9000104A90CA8FFF7EEFCDDE90D01F9
:101B20000C9A4FF0000B07F10109109200914EE062
:101B30004FF000400097CDE9011004A90CA8FFF771
:101B4000DBFCDDE90D020C9B0F994FF0000B914679
:101B50001093009211B9791C00EB0109B7EB090051
:101B600003D4C0F1FF3B07F10109A9EB0700019085
:101B700042E0012F00DA01270021112F01DD1120A1
:101B800000E03846CDE9000104A90CA8FFF7B4FC39
:101B9000DDE90D010C9A00914FF0000BB94610924F
:101BA00021070FD4009A4A4503DA914601E0A9F1D2
:101BB0000109B9F1010F05DD109AA9F10101515C8C
:101BC0003029F4D0B84202DA10F1040F03DA01210F
:101BD000CDE9011010E0002803DC8344A9EB0001EB
:101BE00002E0411C494500DD8946A0EB0B00401C8A
:101BF00001904FF000400290200705D4019848451D
:101C000002DB4FF0FF30019000208DF84B0002986E
:101C10000DF14B07B0F1004F25D002200C902B2086
:101C20000D90029800280CDA404202902D200D9071
:101C300007E00A210298FEF77DFC3031029007F898
:101C4000011D0C99481E0C900029F2DC0298002816
:101C5000EFD1791E0D980870307800F0200040F028
:101C6000450007F8020D11A8C01BC01D0290139873
:101C7000007800B1012000EB0901019801EBE0714F
:101C8000029801440398401A401E0390E00306D4D2
:101C900053462146179A039800F05CF805441398C0
:101CA000007818B15246179990476D1CE00323D570
:101CB00053462146179A039800F04CF805441BE060
:101CC000BBF1000F07DB0098584504DD1098179909
:101CD00010F80B0001E01799302052469047019808
:101CE0000BF1010B401E05F10105019004D12E20DE
:101CF0005246179990476D1CB9F10001A9F10109ED
:101D0000DEDC05E017F8010B5246179990476D1C71
:101D10000299481E02900029F4DC53462146179A86
:101D200003989EE62D0000002B000000200000001C
:101D30002DE9F041044600251E461746880404D4C8
:101D400005E039462020B0476D1C641EF9D52846B1
:101D5000BDE8F0812DE9F041044600251E4690467D
:101D6000C80301D5302700E02027880404D505E00A
:101D700041463846B0476D1C641EF9D52846BDE87B
:101D8000F08110B50446E0B2FFF70AFB204610BD13
:101D9000FEF76AFDFEF714FD02A0FFF78DFBFEF7CC
:101DA00033FDFCE753797374656D20496E6974697E
:101DB000616C697A65642E2E2E0A0000E407010129
:101DC000000000001F1C1F1E1F1E1F1F1E1F1E1FA6
:101DD0001F1D1F1E1F1E1F1F1E1F1E1FFC1D000874
:101DE0000000002094000000D8140008901E000895
:101DF0009400002004080000E8140008000000001F
:101E000008000000000C014002000000000000007B
:101E1000000000000200320014000000000000007A
:101E20000400000000080140400000000000000025
:101E3000000000000200320014000000000000005A
:101E40000400000000080140100000000000000035
:101E5000000000000200320014000000000000003A
:101E60000000000000A24A04000000000000000082
:101E70000102030406070809020406080000000026
:101E80000102030401020304060708090000000020
:0400000508000105E9
:00000001FF
